:10000000F81600203D170000FB4E000011160000FE
:100010001116000011160000111600001116000044
:10002000111600001116000011160000091500003D
:100030001116000011160000B5140000EB4E000070
:10004000FD160000FD160000FD160000FD16000064
:10005000FD160000FD160000FD160000FD16000054
:10006000FD160000FD160000FD160000FD16000044
:10007000FD160000FD160000FD160000FD16000034
:10008000FD160000FD160000FD160000FD16000024
:10009000FD160000FD160000FD160000FD16000014
:1000A000FD160000FD160000FD160000FD16000004
:1000B000FD160000FD160000FD160000FD160000F4
:1000C000FD160000FD160000FD160000FD160000E4
:0C00D000FD160000FD160000FD160000EB
:1000DC0053B94AB9002908BF00281CBF4FF0FF31A3
:1000EC004FF0FF3000F00CB8ADF1080C6DE904CE08
:1000FC0000F008F8DDF804E0DDE9022304B07047F5
:10010C00704700BF2DE9F04F099F154604468E46F7
:10011C001E46002B40F0CC808A42B2FA82FC4CD9AD
:10012C00BCF1000F0BD0CCF1200801FA0CFE20FA28
:10013C0008F802FA0CF548EA0E0E00FA0CF44FEA35
:10014C0015491FFA85F8BEFBF9FA210C09FB1AE3D5
:10015C000AFB08FB41EA03439B452AD9EB180AF139
:10016C00FF3004D29B4502D9AAF102002B44A3EB29
:10017C000B03A4B2B3FBF9F209FB123302FB08F830
:10018C0044EA0344A04516D92C1902F1FF3303D2DB
:10019C00A04501D9931E2C44A4EB080443EA00406B
:1001AC0027B124FA0CF400233C607B603146BDE897
:1001BC00F08F5046DBE71346EEE702B9FFDEBCF1E9
:1001CC00000F2ED18B1A01264FEA154EAAB2B3FBA3
:1001DC00FEF8210C0EFB183308FB02F941EA03432D
:1001EC00994561D9EB1808F1FF3004D2994502D931
:1001FC00A8F102002B44A3EB0903A4B2B3FBFEF15C
:10020C000EFB11334A4344EA0344A2424ED92C1943
:10021C0001F1FF3303D2A24201D98B1E2C44A41A44
:10022C00BCE7CCF1200E02FA0CF521FA0EF901FA1A
:10023C000CF320FA0EFE4EEA03034FEA154800FABF
:10024C000CF4B9FBF8F11FFA85FE08FB1192180C9F
:10025C0001FB0EF640EA0242964221D9AA1801F19E
:10026C00FF3003D2964201D9881E2A44921B9BB2BE
:10027C00B2FBF8F908FB192209FB0EFE43EA024314
:10028C009E450FD9EB1809F1FF3604D29E4502D9D1
:10029C00A9F102062B44A3EB0E0346EA004693E7B2
:1002AC000846E3E74E46F6E74046A4E70B46B6E7BA
:1002BC008B4205D90FB1C7E900010026304675E71E
:1002CC00B3FA83FCBCF1000F0FD18B4201D38242F5
:1002DC0009D8841A61EB030E0120002F6AD0C7E9FC
:1002EC00004E002662E76046F7E7CCF1200E03FAD9
:1002FC000CF322FA0EF521FA0EF41D4301FA0CF35D
:10030C0020FA0EF10B434FEA154A00FA0CF6B4FB37
:10031C00FAF91FFA85F80AFB19401C0C09FB08F1C5
:10032C0044EA0044A14202FA0CF23FD92C1909F11B
:10033C00FF3004D2A14202D9A9F102002C44641A64
:10034C009BB2B4FBFAF90AFB194409FB08F843EA1F
:10035C00044188452CD9691809F1FF3304D288452A
:10036C0002D9A9F10203294443EA0040A1EB080198
:10037C00A0FB02894945C2464C4602D306D14645EC
:10038C0004D2B8EB020A69EB0504013897B1B6EB5D
:10039C000A0361EB040606FA0EFE23FA0CF34EEA8E
:1003AC00030326FA0CF6C7E900369AE74846C6E777
:1003BC004B46D9E73E46F9E608B5054804F0A2F9E4
:1003CC00044B054801211970BDE8084004F09AB9A6
:1003DC006C5A0000E80300207F5A00002DE9F74F0B
:1003EC0080468A4643686A465B681121984788BBF9
:1003FC00DDE9004944F62063A4FB036703FB09779E
:10040C00174A002330463946FFF762FE154B4FF072
:10041C00FF32BB4208BFB24283461ED3AAFB04453F
:10042C000AFB09550E4A002320462946FFF750FEC9
:10043C000C4A4FF0FF31AA4208BFA14203460CD32D
:10044C00D8F804201121146840465A46A04703B03E
:10045C00BDE8F08F6FF00400F9E76FF02200F6E7CB
:10046C0040420F003F420F000F4B1B78012B10B581
:10047C000CD013B1022B14D010BD0C490C4803F056
:10048C0042FF0C48BDE8104004F03CB9074C08484A
:10049C00214603F038FF21680748BDE8104004F0FE
:1004AC0031B90648EEE700BF302500207C01002062
:1004BC0064010020E75B00000C5C0000315C000074
:1004CC00074B1A7832B1012A01D1012805D100223B
:1004DC001A7002E0012800D11870FFF7C5BF00BFE9
:1004EC003025002008B50B480B4C0C4D04F00AF9D4
:1004FC004FF4FA7003F0FAFE4FF0FF31204603F090
:10050C0071FC00202870FFF7DBFF204603F044FC51
:10051C00EEE700BF855B000054260020E9030020B5
:10052C002DE9F04119481A4F04F0ECF8002401268B
:10053C00B846642003F0DAFE3D78012DF9D1294646
:10054C00144804F0DFF8144B28461D70134DFFF7C8
:10055C00B7FF4FF4C87171432868FFF73FFF10B124
:10056C000F4804F0CFF80136F6B2322E02BF013438
:10057C00E4B20126022CDCD100244FF4C8712868A7
:10058C0088F80040FFF72AFFD3E700BF945A000019
:10059C00E8030020A95A0000E903002060010020B4
:1005AC00C15A000070B50D480D4C0E4E0E4D04F0A6
:1005BC00A9F84FF4FA7003F099FE4FF0FF31204682
:1005CC0003F010FC00203070FFF77AFF2978074801
:1005DC0004F098F8204603F0DFFBEAE75D5B0000CF
:1005EC0054260020E9030020EA030020715B000080
:1005FC0038B50C461146054600F058F828B10748A6
:10060C002146BDE8384004F07DB821464FF499727C
:10061C00284603F06DFE21460148F2E7985B000086
:10062C00C85B000008B5154804F06CF8144B15496C
:10063C0015480D2203F072FE144804F063F81448B8
:10064C0004F060F8134802F021FF134B186080B9D6
:10065C001049124804F056F811480A4A0F21FFF7C6
:10066C00C7FF104804F04EF84FF47A7003F03EFECA
:10067C00FAE70D4804F046F8EEE700BFD45A000044
:10068C00C5030000EC5A00004C010020F35A000096
:10069C00FE5A00001A5B000060010020205B000085
:1006AC00640100204A5B0000315B000010B5044679
:1006BC000161084602F0EAFE206020B9034804F00C
:1006CC0021F8012010BD0020FCE700BF545C0000A5
:1006DC000B6801330B60014B1B6818470025002089
:1006EC002DE9F04F85B09B460E9CDFF88890012CCD
:1006FC00B8BF0124012B0CBF3023202316468246A1
:10070C008846029301250A270022B6FBF9F30193D0
:10071C000AB9B1451DD8019B414603F13000D047C1
:10072C0001350122019B013F012F09FB13664FF09C
:10073C000A03B9FBF3F9E8D1414606F13000D04782
:10074C00BBF1030F02D1641B002C0EDC05B0BDE81D
:10075C00F08FBC42E6DBBBF1020FE3D841460298B6
:10076C0003920135D047039ADCE741462020D0475D
:10077C00013CE9E700CA9A3B014B1860704700BF87
:10078C000025002007B50023019302460B460348C1
:10079C0001A903F047FE03B05DF804FBDD06000081
:1007AC0030B5002287B00D490D4804F082FF0D4D85
:1007BC000D4900240E23CDE90243CDE90444CDE9D3
:1007CC0000440A4B4FF44072284603F06BFB084977
:1007DC00284604F0F7FE204607B030BD01080000A3
:1007EC0094010020DC010020F80F0020250C0000F3
:1007FC00885C0000014803F0CFBA00BF64260020DB
:10080C0008B500F069FA094803F08AFF042328228E
:10081C000748084904F004FE074B084A1A604FF4D5
:10082C000040BDE8084000F087BC00BF8C010020F0
:10083C00C001002060200020042500206B47000030
:10084C00F8B50F4BBFF35B8F002553E8007F43E8EF
:10085C000052002AF9D1BFF35B8F0A4C0A4E361BAB
:10086C003611B54200DBF8BD63685B792BB12368A8
:10087C00DB6813B139462046984701351034F0E750
:10088C00840100203059000040590000064BBFF392
:10089C005B8F53E8002F013243E800210029F8D187
:1008AC00BFF35B8F704700BF84010020044A054BE7
:1008BC009B1AB1EBD30F34BF52F8310000207047B4
:1008CC00F858000030590000094B4268C31A1B113C
:1008DC00013310B513714368064C196001225A712B
:1008EC00227812B9044803F057FA0123237010BD83
:1008FC0030590000EB0300206426002070B5114B2A
:10090C00BFF35B8F53E8005F6A1C43E800210029AA
:10091C00F8D1BFF35B8F2DB90B4C0C4E361B361137
:10092C00B54200DB70BD237B43B123685B6903B127
:10093C009847042200212046FFF7C6FF01351034EA
:10094C00EEE700BF8801002030590000405900003C
:10095C00164B984237B5044602D3154B98421FD319
:10096C00002201A9134802F037FF0546D8B901222D
:10097C00019BBFF35B8F53E8001F43E80020002866
:10098C00F9D1BFF35B8F019821461F22043004F08C
:10099C00BDFA019C7E2384F8233084F8245004345F
:1009AC00204603B030BD044CFAE700BF30570000BE
:1009BC00F8630000C0010020905C000048B1054BBA
:1009CC00984205D3A03398422CBF002001207047D9
:1009DC0000207047602000202DE9F84F534B1B7806
:1009EC00044603B960B34FF02003EFF3118683F391
:1009FC001188BFF36F8F4E4803F0A2FE054686F3B5
:100A0C001188BFF36F8F78B1BFF35B8F494B53E8FD
:100A1C00002F013A43E800210029F8D1BFF35B8F86
:100A2C008CB1284603F07DFF24B9434B1B680BB1F6
:100A3C00FFF706FF3E4803F081FE041C18BF01249B
:100A4C002046BDE8F88F3D4B1B78DBB92B7ADB07D2
:100A5C0018D403F079FF8146284603F042FF26465E
:100A6C002246CC4623464FF0010E1CF8011B09B15F
:100A7C0098420ED8324B334ADFF8E0B09B1AC3F3DE
:100A8C00C90AD6B9304E314FBF1B3F114FF0000889
:100A9C0048E0252902D182F00102E6E7002AE4D0E1
:100AAC0041F02007613F192FDFD8732904BF0EFADC
:100ABC0003F2164301330022D7E7B6FA86F7C7F1E3
:100ACC001F073946284603F00FFF214B9842024678
:100ADC0002D3204B984214D31046FFF76FFF80B916
:100AEC001D4B9A420DD028F03F0343F0010363F3F2
:100AFC0007086AF38F1843464A463946584603F0AE
:100B0C0053FE012303FA07F726EA0706B9E77368D1
:100B1C005B7923B1336829461B683046984708F146
:100B2C0001081036B845F2DB7BE700BFEB03002071
:100B3C008C0100208001002084010020EC030020A7
:100B4C0000590000F85800003059000040590000CE
:100B5C0030570000F8630000905C0000AE5C0000B1
:100B6C00264B70B51B68418105469847244CE860BC
:100B7C00BFF35B8F54E8003F013344E80032002A96
:100B8C00F8D1BFF35B8F4FF02003EFF3118683F3A3
:100B9C001188BFF36F8F1B48294603F0C5FD86F300
:100BAC001188BFF36F8F184B1A787AB14FF020036E
:100BBC00EFF3118483F31188BFF36F8F0020FFF7DD
:100BCC000BFF84F31188BFF36F8F70BD0F4923683F
:100BDC0009680029F9D0012B06D14FF47A710C4821
:100BEC00BDE8704003F040BB0A2BEED1084804F07E
:100BFC006CFD0848BDE8704003F0CEB80425002019
:100C0C00800100208C010020EC0300204802002011
:100C1C00940100206426002008B5FFF76FFE03F056
:100C2C00B5F80B4B186030B10A4B1B68092B02DD71
:100C3C00094803F0B1F8084C0020FFF7CDFE00285E
:100C4C00FAD14FF0FF31204603F0CCF8F4E700BFA7
:100C5C00480200208001002064260020F8B50E4FC9
:100C6C003D7875B90D4C0E4EFFF748FE361B36110C
:100C7C00B54207DB0020FFF7AFFE0028FAD10123B5
:100C8C003B70F8BD63685B791BB1236820461B6918
:100C9C00984701351034EBE7EC0300203059000085
:100CAC004059000007B504380190BFF35B8F50E842
:100CBC00003F5A1E40E800210029F8D1BFF35B8F9A
:100CCC00012B03D101A9034802F0B2FD03B05DF87A
:100CDC0004FB00BFC001002020231A460149024832
:100CEC0004F09EBB002100204C02002037B50023ED
:100CFC00094D01930120FFF76FFE0446FFF7C6FD77
:100D0C00002201A9284602F067FD08B1002CF1D1A0
:100D1C00019803B030BD00BF4C02002007B5002283
:100D2C0001A90648019202F057FD10B1FFF7DEFF52
:100D3C000190019803B05DF804FB00BF4C02002049
:100D4C007FB5047A457A019014F001044FEA151529
:100D5C000ED0019B1A7A920704D55B69104C039351
:100D6C00039BB3B901A90E4802F062FD04B070BD3B
:100D7C00002DEED0A5420198EBD9214603F0B4FD2D
:100D8C000646FFF71BFE10B13046FFF78BFF013410
:100D9C00F0E71D6803A9204602F04AFD0395DFE742
:100DAC004C0200200EB403B503AB014653F8042BE0
:100DBC000448019303F036FB002002B05DF804EB0D
:100DCC0003B07047FD4C00002DE9F04F85B011F0D9
:100DDC000204064690469DF8387001F0010901F0B6
:100DEC00080507D011F0440F37D11A463249FFF7E6
:100DFC00D9FF0446B9F1000F0AD0304B304953F8F3
:100E0C002720304B3046002A08BF1A46FFF7CAFF8E
:100E1C003DB12D4B2D4953F827203046FFF7C2FF2B
:100E2C000546B8F1000F44D0012303FA07F7284B0D
:100E3C0017F0100F274F18BF1F46BDF840109DF834
:100E4C003C00FFF733FD394602463046FFF7AAFF58
:100E5C002844204405B0BDE8F08F1F4A116831B317
:100E6C001E4A4FF4616E1468B3FBF4F34FF47A7CB2
:100E7C00B3FBF1F4B4FBFEF20EFB124E01FB143487
:100E8C000CFB04F44FF03C0AB4FBF1FB01FB1B44DC
:100E9C00BEFBFAF30CFB04F4B4FBF1F1CDE901B1A8
:100EAC000AFB13E100910E49FFF77CFFA1E708460E
:100EBC009FE7084FC1E700BF2E5D000040590000BE
:100ECC001C620000205D000054590000535D0000BE
:100EDC002A5D0000255D0000680200206C020020E5
:100EEC00375D000038B50C46E107054603D5084AC6
:100EFC000849FFF757FFE20608D4A30628464CBF63
:100F0C0005490649BDE83840FFF74CBF38BD00BF66
:100F1C00205D00001C620000125D0000115D0000ED
:100F2C002DE9F0479846089BDD0604460E46174609
:100F3C0005D499064CBF29492949FFF733FFDFF83F
:100F4C00A890002545452ADBDFF8A080DFF8A090AB
:100F5C00DFF894A00025AF422ED9725D4946204699
:100F6C00FFF720FF0135102D1FD11E49DFF87880C7
:100F7C00DFF880902046FFF715FF0025AF4227D9F8
:100F8C00725DA2F120035F2B28BF2E22494620461A
:100F9C00FFF708FF0135102D13D1BDE8F087494646
:100FAC002046FFF7FFFE0135CCE76A07D3D1514647
:100FBC002046FFF7F7FECEE741462046FFF7F2FE4C
:100FCC00D0E76B07DAD141462046FFF7EBFED5E7B9
:100FDC0041462046FFF7E6FEDCE700BF125D00004D
:100FEC00115D0000EE5C0000EC5C0000EA5C0000AF
:100FFC00E45C0000F05C00002DE9F0478B7A13F004
:10100C00070417468AB005460E460A7A1CD0498951
:10101C00C3F3C2038909D2430291CDE9004302F024
:10102C000102F3683946FFF7CFFE8146337ADA07BF
:10103C000CD42946304603F0F1FC4CB32246394619
:10104C002846FFF74FFF23E0A146EFE734BB2746C6
:10105C00EB68069306AA3B46A968304603F0CAFC27
:10106C00069A6B681A603AB1AB68134413F8014CDA
:10107C00A4F10A035C425C41284603F02CFE069B5B
:10108C001F44002BE4D11CB114492846FFF78AFEFB
:10109C00284603F020FE0AB0BDE8F087304603F086
:1010AC0053FC0F4902462846FFF77CFE4FF0000820
:1010BC004FF0100A05AA434606A93046CDF814A0F5
:1010CC0003F098FC059A002AB8D04B46009706A965
:1010DC002846FFF725FF059B9844EBE7F35C0000DF
:1010EC001C62000073B5D0E900435D680F4A42F200
:1010FC000F738B4228BF0B466846052101F094FB09
:10110C002B4606460B222046094903F07AFC2B4657
:10111C0032466946204603F074FC2B461B220549D7
:10112C00204603F06EFC02B070BD00BF6663000089
:10113C00145D0000F55C0000084A10B50123084C52
:10114C0013600021A04204D801B11360054B186054
:10115C0010BD40085B000121F4E700BF6C020020C9
:10116C0040420F0068020020014803F0B4BD00BFEC
:10117C00805900000148FFF7B5BF00BF805900003F
:10118C0008B5034802F082F9024B586008BD00BF55
:10119C00795D00007802002010B508460C4603F07B
:1011AC0093FB214604480F22FFF726FF2046BDE89B
:1011BC00104003F0B6BB00BF805900000A2838B5B8
:1011CC000446074D04D1286843680D215B68984795
:1011DC0028684368E1B25B689847204638BD00BF79
:1011EC008402002010B5044C204601F017FB204669
:1011FC00BDE81040FFF7C0BAC911000008B504489B
:10120C0002F044F9034B1860FFF7ECFF002008BD17
:10121C00795D000084020020154B07B51A6882B175
:10122C004FF08042D2F80423D1070AD500221A606D
:10123C001B6810480093009B83685B7A0BB903F022
:10124C0087FD0D4B1A6882B14FF08042D2F804230F
:10125C0092070AD500221A601B680193019B07486C
:10126C0003B05DF804EB03F073BD03B05DF804FB51
:10127C00000100406425002004010040702500207E
:10128C000D4B0022C3F840214FF02002EFF31181E7
:10129C0082F31188BFF36F8F084AD3F804051368E3
:1012AC00C01A20F07F400344136081F31188BFF310
:1012BC006F8F02F041BF00BF00100140A002002060
:1012CC0073B51C4802F0E2F880B343681A4D1B68F2
:1012DC0000219847012600244FF48033C5F80845B7
:1012EC00C5F84065C5F8043303F1804303F58A5310
:1012FC004FF400321C601B680193019B0F4B31466D
:10130C00C3F880211120224600F018F9112000F0BA
:10131C0005F90B4B1E602E60D5F80435334423F0D1
:10132C007F43C5F84035204602B070BD4FF0FF300A
:10133C00FAE700BF975D00000010014000E100E0FB
:10134C0008100140F0B5254EB0F1FF3F08BF304604
:10135C004FF02003EFF3118583F31188BFF36F8FE8
:10136C001F49204BD1F804451B68E21A22F07F4735
:10137C00120219D4421E22EAE272B242A8BF3246CD
:10138C00781C1044B04294BF18189819041B24F010
:10139C007F4420F07F43022CC1F8403506D985F3F9
:1013AC001188BFF36F8FF0BD0022E9E7D1F8043547
:1013BC000D4AC31A23F07F435C1E944205D90B4B94
:1013CC004FF40032C3F80021E9E7012B02BF0230D1
:1013DC0020F07F40C1F84005E1E700BFFEFFFF00B1
:1013EC0000100140A0020020FEFF7F0000E100E0A1
:1013FC004FF02002EFF3118382F31188BFF36F8F4C
:10140C00064AD2F80405064A1268801A20F07F407A
:10141C0083F31188BFF36F8F704700BF001001403A
:10142C00A00200204FF02003EFF3118283F3118808
:10143C00BFF36F8F0649074B0868D3F8043582F366
:10144C001188BFF36F8F1B1A23F07F43184470472A
:10145C00A00200200010014004488168406A8842C4
:10146C0003D003494FF080520A607047A803002054
:10147C0004ED00E0094A0A4993680968996609492C
:10148C0058664B6843F080534B60002383F31188FC
:10149C00BFF36F8F9368986E704700BFA80300204E
:1014AC00545A000000ED00E012498A684FF0280001
:1014BC001044EFF3098C80E8F01F202080F3118892
:1014CC00BFF36F8F0C4F4FF000664A6A8A603E6024
:1014DC00506E0023536680F3118804B5104603F058
:1014EC000DFDBDE8044002F1280090E8F01F8CF3DC
:1014FC0009887047A803002004ED00E01EF0040FDB
:10150C000CBFEFF30880EFF30980816911F8021C1E
:10151C000229FFD001B503F0E6FC01BD43B2002B5C
:10152C0008DB012200F01F0002FA00F05B09024AFE
:10153C0042F82300704700BF00E100E043B2002BEB
:10154C00A8BF03F1604301F101014FEA4111AEBFA5
:10155C0003F5614300F00F00034BC9B2ACBF83F835
:10156C0000131954704700BF14ED00E073B51E460C
:10157C000A9B00938C18099B054604F028F8A4F1EB
:10158C0020030A4A23F0070322F001029A61069A0B
:10159C005A60079A9A60089ADA604FF080721E605F
:1015AC00DA61AB6400236B6602B070BDFD430000D2
:1015BC00F8B505460C4617461E4600F093FB0A4B41
:1015CC003C4428469D6024F0070403F097FC304609
:1015DC0084F30988002163B681F31188BFF36F8F00
:1015EC000022002302F004FFA8030020014910226E
:1015FC000A60704710ED00E0404080F3118830BF66
:10160C00704700BFEFF30880EFF30981724601B514
:10161C0000F046FA01BD00BF73B506460C46002922
:10162C0038D001224FF0000362F307031D4D1E4A10
:10163C001E48AD1AC5F3C90565F38F13ADF800301C
:10164C00D1E90123096803F0C7F801224FF0000328
:10165C0062F3070365F38F13ADF80030D4E904236C
:10166C00E168134803F0B8F801234FF0000263F36C
:10167C00070265F38F12E1690E4803F081F84FF011
:10168C000002012363F3070265F38F12A1690A4874
:10169C0003F076F82146304602B0BDE8704001F008
:1016AC0037BF00BF10590000F8580000C35D0000A0
:1016BC00F25D0000215E0000305E000030BFFFF7DD
:1016CC00FDBF00BF08B5084B084A23F07F039360A9
:1016DC00BFF34F8FBFF36F8F01F098FF01F0A0FFA6
:1016EC0000F0CEFA01F0D4FF0000000000ED00E0A5
:1016FC0001B572B60B4A106A00281EBF0021116298
:10170C0003F08CFE62B6EFF30580A0F110004FEAF7
:10171C00C0000549014409C99847BDE80140034987
:10172C0008470000A8030020305700006514000093
:10173C0003F0ECFC202080F3118808484FF4006182
:10174C00401880F30988EFF314800221084380F3DA
:10175C001488BFF36F8FFFF7B5FF00003818002017
:10176C0001234FF0000110B563F30701334C344BE8
:10177C003448E41AC4F3C90464F38F1102F0F3FF84
:10178C00314B9B6A9A0109D54FF00001012363F399
:10179C00070164F38F112D4802F0E5FF2A4B9B6A79
:1017AC00DB0109D54FF00001012363F3070164F35A
:1017BC008F11274802F0D7FF234B9B6A180309D5DA
:1017CC004FF00001012363F3070164F38F112148EB
:1017DC0002F0C9FF1C4B9B6A590309D54FF000015D
:1017EC00012363F3070164F38F111B4802F0BBFF65
:1017FC00154B9B6A9A0309D54FF00001012363F343
:10180C00070164F38F11154802F0ADFF0E4B9B6A74
:10181C00DB0309D54FF00001012363F3070164F3E7
:10182C008F110F4802F09FFF074A936A6FEA034338
:10183C006FEA13439362002010BD00BF10590000E3
:10184C00F8580000BE5F000000ED00E0D65F00001D
:10185C00E95F0000036000002160000046600000AA
:10186C0060600000F8B501230E464FF0000163F3F1
:10187C000701364C364BE41AC4F3C90464F38F11D8
:10188C000746344802F06FFF334B9B6AD90609D5E3
:10189C004FF00001012363F3070164F38F112F480C
:1018AC0002F061FF2C4B9B6A1A0709D54FF000011F
:1018BC00012363F3070164F38F11294802F053FFEE
:1018CC00254DAB6A9B071CD501234FF0000163F338
:1018DC00070164F38F11234802F045FF696BAB6A73
:1018EC0018060ED54FF00002012363F3070264F3D0
:1018FC008F121D4802F044FF1FB1AB6A23F0800326
:10190C00AB62154B9B6ADA0709D54FF00001012336
:10191C0063F3070164F38F11144802F024FF0E4B9C
:10192C009B6A9B0609D54FF00001012363F3070165
:10193C0064F38F110E4802F016FF074B9A6A9A6AED
:10194C00002042F0FF029A623070F8BD105900007E
:10195C00F8580000E65E000000ED00E0FC5E0000C0
:10196C002F5F0000425F00005A5F0000705F0000B4
:10197C008F5F0000F8B501230E464FF0000163F3B2
:10198C0007013C4C3C4BE41AC4F3C90464F38F11BB
:10199C0007463A4802F0E7FE394B9B6AD90409D551
:1019AC004FF00001012363F3070164F38F113548F5
:1019BC0002F0D9FE324B9B6A1A0509D54FF0000193
:1019CC00012363F3070164F38F112F4802F0CBFE60
:1019DC002B4DAB6A9B051CD501234FF0000163F323
:1019EC00070164F38F11294802F0BDFEA96BAB6AA5
:1019FC0018040ED54FF00002012363F3070264F3C1
:101A0C008F12234802F0BCFE1FB1AB6A23F40043D3
:101A1C00AB621B4B9B6A590509D54FF000010123A2
:101A2C0063F3070164F38F111A4802F09CFE144B08
:101A3C009A6AD20511D54FF00001012363F3070117
:101A4C00154864F38F1102F08EFE0D4A936A002044
:101A5C0043F47F4393623070F8BD9B6A9B04F4D5CA
:101A6C004FF00001012363F3070164F38F110B485E
:101A7C00E9E700BF10590000F85800005E5E000056
:101A8C0000ED00E0745E00002F5F0000855E00003A
:101A9C009E5E0000B35E0000CE5E00008F5F000013
:101AAC002DE9F041644B5E688AB0C6F3080400254A
:101ABC0085F31188BFF36F8F02F07F43B3F17F4F33
:101ACC0011D102F00C03082B0FD101234FF00001B0
:101ADC0063F30701594A5A4B5A489B1ADB0863F3C4
:101AEC008F1102F040FE2F4604E012074EBF0F4646
:101AFC000746012500238DF80730E31E092B7FD8FC
:101B0C00DFE803F005696D4C7E7E7E7E7E710123DD
:101B1C004FF0000163F30701494E484B4A48F61A4F
:101B2C00C6F3C90666F38F1102F01DFE424BDC6A48
:101B3C004FF0000814F002048DF807800BD04FF022
:101B4C000001012363F30701404866F38F1102F093
:101B5C000AFE002425E0DB6A5B0022D501234FF04E
:101B6C00000163F3070166F38F11394802F0FBFDA6
:101B7C00384B1B782BB10DF107010120FFF772FEDA
:101B8C000EE0354B1B782BB10DF107010120FFF74F
:101B9C00F1FE05E0314B1B889BB213B1FFF7E0FD62
:101BAC0004469DF807309BB92022394602A803F061
:101BBC00DAF9099B002D3AD0C3F3080222B96FEA77
:101BCC0053236FEA4323099302A92046FFF724FD10
:101BDC000AB0BDE8F0810DF107010020CEE70DF150
:101BEC0007010020D3E701234FF0000163F3070145
:101BFC00124A134B1A489B1ADB0863F38F11A6E7A2
:101C0C0001224FF0000362F307030D490B4A1548FC
:101C1C00891AC90816F4F87F61F38F13A4F1100226
:101C2C00114918BF0146114802F0BEFD91E723F49B
:101C3C00FF7323F00103C6E700ED00E0F858000045
:101C4C00105900008B600000B6600000CD600000F1
:101C5C00EE60000028ED00E029ED00E02AED00E048
:101C6C000D610000586100004361000071610000CB
:101C7C00024A536943F010035361704700ED00E0D2
:101C8C00044800232021C2180133272B82F80013AB
:101C9C00F9D1704700E100E038B505464FF020035C
:101CAC00EFF3118483F31188BFF36F8F03F09EFC65
:101CBC000A4B9B68AB420BD1094B5A68C2F3080222
:101CCC0012B92046FFF7D6FB5A6842F080525A6090
:101CDC002046BDE8384003F0F2BB00BFA80300204B
:101CEC0000ED00E01FB5084B0193084B0293084B25
:101CFC00039301AB0093074A074B0121684600F0A0
:101D0C00B5F805B05DF804FB0000002000000000F1
:101D1C0000000B060000002000000120F8B52E4F3B
:101D2C000E460021B14222DA50F821C0DCF8044002
:101D3C00002C4FD0EBB104F1FF3E14EA0E0F06D18C
:101D4C001F2C04D9DCF800501EEA050F11D001231A
:101D5C004FF0000263F307022048214B1B1ADB08EB
:101D6C00204863F38F1202F00BFD6FF01502104642
:101D7C00F8BD202CD5B2DCF80020DCF808C01AD94C
:101D8C00B4F1004F19D8013CB4FA84F4C4F11F0427
:101D9C006400072D4CEA040411D901234FF0000212
:101DAC0063F307020D490E4B0F485B1ADB0863F314
:101DBC008F122946D7E70824EBE73E24E9E722F007
:101DCC001F022A4342F0100244F00104BD60FA6085
:101DDC003C616A1C0131A5E790ED00E0F858000069
:101DEC000859000088610000AB610000034B05221C
:101DFC005A60BFF34F8FBFF36F8F704790ED00E0C9
:101E0C00BFF35F8F014B00225A60704790ED00E0EA
:101E1C0013490868082810B51ED8FFF7F1FF114CBC
:101E2C0049680022904201F10C0105D10E4B18704B
:101E3C00FFF7DCFF002010BDA26051F80C3C23F032
:101E4C001F03134343F01003E36051F8043C43F0C9
:101E5C00010323610132E5E74FF0FF30EBE700BFF0
:101E6C00BC59000090ED00E0EE03002010B5034CCF
:101E7C0001232278FFF752FF207010BDEE030020E3
:101E8C0008B5084A00231278FFF748FF10F1160F27
:101E9C0003D0054B0022072800DD08BD98601A61AD
:101EAC000130F8E7EE03002090ED00E02DE9F04F53
:101EBC009FB01E460023019004910093134613F823
:101ECC00010B059358B1252800F085800499019BDE
:101EDC009847013040F00D844FF0FF330093009889
:101EEC001FB0BDE8F08F232C6CD061D8002CF6D03D
:101EFC00202C0A9B08BF01230A93CDF81480DDF82F
:101F0C001480B94818F8014B214603F012F8002848
:101F1C00E9D12A2C66D156F8043B0793002BBFBF9E
:101F2C005B42079301230B93059B98F8004003F148
:101F3C0002082E2C7CD198F800302A2B75D156F83B
:101F4C00045B08F1010818F8014BA8482146274604
:101F5C0002F0EFFF00286ED04346682F13F8014BB8
:101F6C00059307D1682C05D108F1020398F80140BC
:101F7C0005934827672C7CD8652C80F03981472C39
:101F8C005DD8452C80F03481002CA8D0252C00F095
:101F9C00AC830499019B2520984701309CD004996F
:101FAC00019B20469847013096D0009B0233A2E358
:101FBC002D2C0AD0302C0BD02B2C099B08BF0123C5
:101FCC0009939AE70123069397E701230B9394E770
:101FDC000123089391E700230893CDE909330B9370
:101FEC0006938CE7A4F13003092B0790A1D80A22A1
:101FFC00DDF8148018F8014BA4F13003092B98D8A4
:10200C00079BCDF8148002FB0344A4F13003079323
:10201C00EEE701FB0535303D9046424612F8013B98
:10202C00A3F130000928F4D98DE700250A21F4E743
:10203C004FF0FF3589E7CDF8148007469AE7632CFB
:10204C005AD020D8582CA4D16F2C06F10409316831
:10205C0040F01C83069B002B00F00A8330238DF884
:10206C005C30002940F00F838DF85D108846012606
:10207C0026E0702C00F0E78228D86E2C00F0D0827D
:10208C00E2D8692C85D13468002C06F1040980F261
:10209C009C802D238DF85C3061420DF15D0630463D
:1020AC000A2202F0ACFF099B064417A8361A002B33
:1020BC0040F024830A9B002B40F020834FEAD47815
:1020CC00002D22DA00252F46AA46E5E0752CBBD060
:1020DC00782CB9D0732C7FF45CAFB146002D59F835
:1020EC00043BB8BF6FF000450026B54240F0BB8200
:1020FC002E460025A84609E0B1464FF0000859F8D5
:10210C00043B8DF85C300126454617AB05EB080205
:10211C000025921B2F46AA4622EAE27291190691DB
:10212C00079990190C1A0B9911B9002C00F3048320
:10213C0003EB080B5B4540F0018312F1FF3280F09A
:10214C000D83A6EB0806BAF1000F11D09BF8000026
:10215C000BEB0608A0F13003092BA8EB0B0640F2A1
:10216C000883D04618F1FF3880F00C83A6EB0A06E2
:10217C00AFB10BEB06081BF801AB0499019B504661
:10218C00984701303FF4A8AEBAF12E0FA8EB0B061E
:10219C00F1D1B846B8F1000F00F3FD82F61B95B1F2
:1021AC009BF800000BEB0608A0F13003092BA8EB01
:1021BC000B0640F2FB822E2800F0F8822F46002FEF
:1021CC0000F3FD82761B5E440CE3099B23B12B23A9
:1021DC008DF85C30214660E70A9B0BB12023F7E7B2
:1021EC00214617AE5BE700BFD1610000D76100004C
:1021FC0006F1070929F00709F9E80223D80240EA99
:10220C005250D60220F0004002960390DDE902679E
:10221C00002AC3F30A5173F10003CDE9126743DAC4
:10222C002D238DF85C300DF15D0740F2FF73994260
:10223C0055D1DDE902231343A4F1410407F1030B4B
:10224C0042D1192C3AD849233B704E237B7046233C
:10225C00002517AEBB70FD70ABEB060B2F46AA46E4
:10226C00099B002B40F0D9810A9B002B40F0D581B3
:10227C009DF85C80A8F12D03D3F1000848EB03080E
:10228C001EAB4344BB4413F81C3C303B0BEB0A061F
:10229C00092B2E4400F23782089B002B00F036826B
:1022AC00079B9A1B17AB37E7099B0BB12B23B8E79E
:1022BC000A9B0BB12023B4E717AFB6E769233B7039
:1022CC006E237B706623C3E7192C99BF4E234122E2
:1022DC006E23612294BF3B703B707A70B8E7029B0F
:1022EC0003980B430C93CB1703430D93DDE90C239D
:1022FC00462C08BF6624134300F0FF80002900F031
:10230C009F80139B43F00043A1F2FE3813930026E9
:10231C0018F1020FC0F2A8806FF0004A4FF0000BCA
:10232C00B8F1000F00F3CC8012A808F1010802F0FC
:10233C0088FEB8F1040FF7D1002D04F0DF03B8BF0D
:10234C000625472B40F0E180F21C02DBAE4240F345
:10235C00D780023CE4B2002D00F0DD80069B013DED
:10236C00002B40F0D880002DD4BF4FF000084FF068
:10237C000108662C40F0D18016EB050A40F1D5809F
:10238C001023119366244FF0000A00224FF00063D3
:10239C00CDE914231AF1FF3A80F0C980129B149AEC
:1023AC0015999B18139A41EB0202CDE9123202F0F7
:1023BC0070430E9300230F93DDE90E23134306D0D5
:1023CC0012A802F050FE12A802F03BFE0136662C59
:1023DC0040F0C780002E40F3B180119B002B07DD2D
:1023EC0011A912A802F06BFE013E07F8010BF4D103
:1023FC00B246BB460026069B13B9002D40F3AF80B6
:10240C002E230BF8013B002E00F0A780002D40F38B
:10241C00A6807742AF42A8BF2F46ED1B002D03DDEF
:10242C00119B002B00F39180B8F1000F40F0AF80AE
:10243C00002317AE8BF80030ABEB060B10E701391D
:10244C00029BDB180293039B5B410393DDE90223A0
:10245C00002A73F10003F2DADDE90223CDE912233D
:10246C004FE712A802F0EDFDDDE9122C4FF0000B46
:10247C00B9480021594508BF604508F10108F0D35F
:10248C000520A2FB002300FB0C33CDE91223DC4614
:10249C00013E6FF0004A4FF0000B00218B4508BF46
:1024AC009A4506D2BCF1000F3FF432AFCDE91223AE
:1024BC002EE792185B4108F1FF384FF0010CECE766
:1024CC0012A802F0D0FDDDE9121008F1FF38013638
:1024DC004FF0000C00239B4508BF824506D2BCF18F
:1024EC00000F3FF41DAFCDE9121019E74918404118
:1024FC0008F1FF384FF0010CECE70026B04613E76B
:10250C00069BAD1B23B966242DE74FF0000830E77E
:10251C004FF0000830E74FF0000805F1010A1023D6
:10252C009A451193A8BF9A462FE76624F7E714A89B
:10253C0002F099FD14A802F084FD2BE7BB46302372
:10254C000BF8013B4FF0000A55E711A912A802F055
:10255C00B6FD013D0BF8010B60E737465EE700273F
:10256C0062E711A912A802F0AAFD069B3870302868
:10257C0018BF06F1FF36002B3BD1002D39DC07F1DB
:10258C00010BB8F1000F45D04FF0000A57465B46DF
:10259C001BF8012D302AFAD02E2A18BF9B46002595
:1025AC0004F0DF03452B7FF443AF002E5A46BABF2D
:1025BC0076422D232B23632E02F8024B8BF801302D
:1025CC000ADD642196FBF1F303F130000BF10302F9
:1025DC008BF8020001FB13660A21934696FBF1F37C
:1025EC0001FB136603F1300030360BF8020B56700A
:1025FC001EE72E2307F1020B7B70002DC1DD119B12
:10260C00002BBEDD11A912A802F059FD013D0BF8FB
:10261C00010BF2E7C2464746C2E74FF001082FE62E
:10262C00B146682F59F8043B05D001DC482F07D080
:10263C00009A1A6001E0009A1A804E46059A3DE411
:10264C00009A1A70F9E7B14647F63003102259F890
:10265C00041BADF85C300DF15E0002F0D0FC4FF0C5
:10266C000208861C2CE59A5D002A4AD001363CE50E
:10267C0017AC0822204602F0C2FC17AEA61B06447B
:10268C004FF000081CE50DF15D04F2E7752C05D147
:10269C000A2217A802F0B3FC0646F1E7069B93B199
:1026AC0047F63003ADF85C300DF15E07102238466A
:1026BC0002F0A5FC582C08D017AE069BBE1B064496
:1026CC004FEA4308FCE417AFF0E717AA12F8013BF6
:1026DC00A3F16101192903D8203B02F8013CF5E76D
:1026EC0012F8013C002BF1D1E6E704992046FFF7E4
:1026FC00EEBB009B01330093B1469EE74FF00108FF
:10270C00DEE41546F6E417AB002207E517AB089A92
:10271C0004E5CDE907320499019B2020984701304C
:10272C00DDE907323FF4D8AB1BF1FF3BF1D2009946
:10273C00214400915C46FBE4A346F5E713F8010B3A
:10274C0007930499019B089298470130DDE9073201
:10275C007FF4F0ACFFF7C0BB323333330499019BE9
:10276C000792302098470130079A7FF4E6ACFFF7C8
:10277C00B3BB0499019B984701303FF4ADAB1BF8F8
:10278C00010FE7E40499019B3020984701307FF456
:10279C00E9ACFFF7A1BB0499019B302098470130AD
:1027AC0008F1FF387FF4F6ACFFF796BB0499019B58
:1027BC00984701303FF490AB1BF8010FF4E40499F7
:1027CC00019B30209847013007F1FF377FF4F7ACBD
:1027DC00FFF782BB04991BF8010B019B9847013052
:1027EC003FF47AABA6EB0B03002BF3DC009B069AB1
:1027FC00002C134400937FF720AF254606E0049984
:10280C00019B2020984701303FF466AB15F1FF3552
:10281C00F5D2009B234400930FE700BF014B1860D7
:10282C00704700BF082500200CB41FB509B90DF185
:10283C000300CDE9020107AB069A0648019302A9F1
:10284C00FFF734FB029B00221A7005B05DF804EB15
:10285C0002B07047FF5000004FF02003EFF31182DD
:10286C0083F31188BFF36F8F06490123C1F84035FC
:10287C004FF08041C1F8783582F31188BFF36F8F28
:10288C000020704700E0014008B5094B1A786AB97E
:10289C000121197006200521FEF750FE0620FEF7D7
:1028AC003DFE044B4FF00042C3F80423002008BD4A
:1028BC00EF0300200060004073B50368554D9B6822
:1028CC008268D5F80443187901F01F0343EA4013DA
:1028DC00E4B2002000F5A27655F82660C6F3042673
:1028EC00B34275D124FA00F6F60771D5840004F1D1
:1028FC00804404F5C044D4F8106526F00106C4F8F1
:10290C001065012404FA00F0C5F808039C0004F1DA
:10291C00A044D4F8000720F44030C4F800079068B5
:10292C00C84010F0010051D0D068C84010F0010030
:10293C004CD05069C84010F0010056D09069C84086
:10294C00C0074AD41069D269C84022FA01F100F0DC
:10295C00010001F00101884214BF012102212D4D1B
:10296C00002404F5A27255F8220010F0030036D1B1
:10297C00A20002F1804202F5C0421B02D2F810659F
:10298C0003F4F85343EA014126F4473604F14003BB
:10299C0026F440769B00C2F810659BB2D2F8106505
:1029AC0003F1804303F5C0433143C2F8101518609E
:1029BC001B680193019BD2F8103543F00103C2F858
:1029CC001035012303FA04F4C5F8044302B070BDBA
:1029DC00013008287FF47EAF98E70321BFE701346C
:1029EC00082CBED16FF01200F0E71369D269534086
:1029FC0023FA01F1D4F8003711F0010F23F440331E
:102A0C0014BF4FF400324FF440321343C4F8003774
:102A1C00DCE700BF006000402DE9F34153490D682D
:102A2C00002D67D0524B9A681B689E68D2E902034E
:102A3C000340D2E90504204323EA00033068D4693B
:102A4C001269D0F810055440444023EA04040120D4
:102A5C000027002B38D10B600B680093009B454876
:102A6C00002301261F46D0F8042306FA03F1114275
:102A7C0013D09A0002F1804202F5C242116861B192
:102A8C0003F5A27150F82110176012680192C1F37E
:102A9C00042106FA01F1019A0C430133082BE2D10F
:102AAC0054BB75B1324B99681B689E68D1E90223FF
:102ABC001340D1E90520024323EA02030124002537
:102ACC008BBB02B0BDE8F081034210D096F804C075
:102ADC0007F01F0242EA4C12920002F1A04223EAD4
:102AEC000003D2F800C72CF4403CC2F800C70137F1
:102AFC004000AEE72C46B2E71D4FD7F80880D8F857
:102B0C0000100029CDD00E68D8F80C308A6823400C
:102B1C00134203D04B68224638469847002EC0D04B
:102B2C0031463668F0E71C421CD03079CF6905F08D
:102B3C001F0242EA401208699200784002F1A0425A
:102B4C00E84010F0010FD2F8000718BF4FF400371F
:102B5C0020F4403008BF4FF440373843C2F8000728
:102B6C0023EA040301356400AAE700BF7C6100403E
:102B7C00AC2500200060004002480021C2E90001A1
:102B8C00002070470024F400036810B504469868D0
:102B9C0000231A4600F1080100F088FB0B4B984209
:102BAC0012D001234FF0000263F307020849094BCE
:102BBC0009485B1ADB0863F38F122368196801F06C
:102BCC00DFFD6FF00F0010BD0020FCE70000AD0B27
:102BDC00F858000020590000FF6100002DE9F04F6B
:102BEC009946036884689F68154687B08846FA1D25
:102BFC00002612F8013FFF2B04D023F080039845E8
:102C0C0000F09E800136F6B2042EF2D101234FF073
:102C1C00000263F307026649664B67485B1ADB08E0
:102C2C0063F38F1241465CE00133042B40F0948037
:102C3C002A460023B2F5004FD9B240D2A1733968AD
:102C4C002560A281C1F80C35C1F80405C1F808252E
:102C5C0004EB460AA17BBAF8043055484D45AB4607
:102C6C0028BFCB462BFA01F203F400431343AAF816
:102C7C00043004224FF0000362F307034D4A059120
:102C8C00121AD20862F38F134C4A4D48CDE9012831
:102C9C0001A90522CDE903B501F0B9FDBAF804305C
:102CAC00C3F30E0303B3A2899A421DD9384600F030
:102CBC00BFFB00283CD1002007B0BDE8F08F0133EA
:102CCC00082B4FEA5202B5D101234FF0000263F3F7
:102CDC0007023749374B3B485B1ADB0863F38F120B
:102CEC00294601F04DFD50E0BB1993F90830BBF1BA
:102CFC00000F57D14D454BD801234FF0A04203FA9A
:102D0C0008F3C2F80C350023211DDAB2B24207D009
:102D1C0031F81320C2F30E0212B1A0899042CAD826
:102D2C000133042BF1D10021384602F05BFBC2E7E2
:102D3C000223012207F11401384600F03DFBBAE7EB
:102D4C00B87B012802D16D084FEA59092368AB42C0
:102D5C003FF47EAF0023211DDAB2B2423FF464AFE0
:102D6C0031F81320C2F30E02002A3FF45DAF0123A9
:102D7C004FF0000163F307010D4A0E4B12489B1AEA
:102D8C00DB0863F38F1101F0EEFC6FF0150093E795
:102D9C00002BB1DA01234FF0A04203FA08F3C2F87A
:102DAC000835B0E74D45F5D8002BA5DBF2E700BFA1
:102DBC00F8580000205900008E620000EE610000FF
:102DCC005E620000346200001F620000024BD3F808
:102DDC008004C3F8800470470020004030B54B7964
:102DEC00012B20D18B79032B1DD1CA792AB1012A51
:102DFC0019D103689B681B78ABB10C7914B1022C08
:102E0C0011D10E240B6847F61225AB425FD027D8A0
:102E1C00B3F5965F5ED012D8B3F5167F5CD005D8AB
:102E2C00B3F5967F5BD06FF022004FE0B3F5966F51
:102E3C0058D0B3F5166FF6D14FF41D233BE0B3F524
:102E4C00615F52D004D8B3F5165FECD1304B32E051
:102E5C00B3F5964F4CD0B3F5E14FE4D12D4B2AE0AE
:102E6C00B3F5E13F46D011D84DF6C025AB4243D067
:102E7C0004D8B3F5164FD6D1274B1CE0B3F5614FF0
:102E8C003DD0B3F5963FCED1244B14E0B3F5E12FF2
:102E9C0037D008D8B3F5613F35D0214DAB42C2D104
:102EAC004FF0806307E0B3F5612F2ED01D4DAB4280
:102EBC00B9D14FF080531C4D2243C5F82435C5F8C9
:102ECC006C25836803C983E80300002030BD4FF4F0
:102EDC000003F0E7154BEEE74FF41C33EBE74FF430
:102EEC00A033E8E74FF49E23E5E74FF46C13E2E7D9
:102EFC000F4BE0E70F4BDEE74FF46503DBE70E4BC0
:102F0C00D9E70E4BD7E70E4BD5E70E4BD3E700BFF7
:102F1C000050270000F0750000509D0000903A0111
:102F2C0090D0030040420F000020004000B013007E
:102F3C0000A04E0000E0D70100F0EB0000705F072E
:102F4C0000B0AF0300D0BE0E084B1A6882B052B16D
:102F5C00002018601B680193019B054BD3F81835B2
:102F6C000B7002B070474FF0FF30FAE708210040B9
:102F7C0000200040094B00221A6082B01A680192AE
:102F8C00019A074A01201060C2F814151A68002A29
:102F9C00FCD0044B01221A6002B070471C21004087
:102FAC00082000400C2000404FF0A04337B5164CD1
:102FBC004022C3F80825032100220825C3F818175E
:102FCC00C3F82027C4F814550625C4F80C55202541
:102FDC00C3F80855C3F81417C3F81C270523C4F805
:102FEC0008350723C4F810358168FFF7F7FE48B998
:102FFC000423C4F80035054B18601B680193019B32
:10300C000123236003B030BD0020004008210040A4
:10301C00044B1868421C04BF034B1878831F58429A
:10302C005841704730010010E00F00F0074B1B783F
:10303C00062B09D1064B1B68C3F30313033B032B6D
:10304C0002D8044AD05C704700207047E00F00F0B3
:10305C00E80F00F0CA62000008B5FFF7D9FF28B1ED
:10306C007C4B7D4A1B68C3F304231360FFF7DEFF20
:10307C0010B17A4B7A4A1A60FFF7CAFF28B1794B24
:10308C00794A1B68C3F342331360FFF7CFFF20B1BB
:10309C00764AD36823F08073D360FFF7B9FF40B151
:1030AC004FF080430022C3F80C21C3F81021C3F861
:1030BC003825FFF7BBFF10B16D4B03221A60FFF7E9
:1030CC00B5FF40B16B4B05221A6001229A670022B2
:1030DC009A603F225A60684B1A68511C0BBF674BB1
:1030EC00674B1A781B6802BF08331B68C3F30313C2
:1030FC00062A4DD1033B032B03D8624AD35C002B29
:10310C0046D04FF08052604BD2F80414C3F820150F
:10311C00D2F80814C3F82415D2F80C14C3F82815E7
:10312C00D2F81014C3F82C15D2F81414C3F83015B7
:10313C00D2F81814C3F83415D2F81C14C3F840157F
:10314C00D2F82014C3F84415D2F82414C3F8481547
:10315C00D2F82814C3F84C15D2F82C14C3F8501517
:10316C00D2F83014C3F85415D2F83414C3F86015DF
:10317C00D2F83814C3F86415D2F83C14C3F86815A7
:10318C00D2F84014C3F86C15D2F84424C3F8702557
:10319C00FFF73EFF28B13D4B3D4A1B6803F04F0340
:1031AC001360FFF735FF48B14FF08043D3F800248C
:1031BC00D20744BF6FF00102C3F800242E4B1B68EA
:1031CC00062B09D12E4B1B68033B022B81BF314AC6
:1031DC00136843F4806313604FF01023D3F800227C
:1031EC00002A03DBD3F80432002B2FDA2A4B0122FE
:1031FC00C3F80425D3F80024002AFBD04FF010228A
:10320C001521C2F80012D3F80024002AFBD04FF08D
:10321C0010231522C3F804221F4B1A46D3F80014AE
:10322C000029FBD00021C3F80415D2F80034002B80
:10323C00FBD0BFF34F8F1949194BCA6802F4E062F7
:10324C001343CB60BFF34F8F00BFFDE7154B164AFE
:10325C001A6008BD240300104035014074C00740BB
:10326C000DF0ADBA440200103C050040F0ED00E05A
:10327C00A00500401056004030010010E00F00F097
:10328C0034010010CE62000000C000405802001053
:10329C00E40E00403C17004000E0014000ED00E06F
:1032AC000400FA05242500200090D0032DE9F04FEE
:1032BC0006793E4C05460C207043271885B097F8CC
:1032CC0008C0BCF1000F6FD122507B60481E6A46CB
:1032DC0001F1030E4FF0FF384FF001094FF0A047FA
:1032EC004FF0030A10F801CFBCF1FF0F59D02CF0AE
:1032FC008003136009FA03FB03F5E0731CF0800FE5
:10330C0014BFC7F808B5C7F80CB547F823A070452B
:10331C0002F10402E6D12868009BC0F86035019BDD
:10332C00C0F86435029BC0F86835039BC0F86C3557
:10333C0001238A79C0F800354F790B89C0F80C75D8
:10334C00C0F80425C0F808354B89C0F810350023A7
:10335C00C0F800324FF48E71C0F8003302F014F84C
:10336C004FF48871286802F00FF84FF48A712868BE
:10337C0002F00AF84FF48271286802F005F80C2369
:10338C007343E35823B1286840F30730FEF7C6F8BF
:10339C000C2303FB064406480123237205B0BDE849
:1033AC00F08FC2F80080B2E70248F7E7C4020020B1
:1033BC000000AD0B0500AD0BF0B40D460179D5F84E
:1033CC0000C0AF88AE68ED681C46184B01EB41019C
:1033DC0003EB81010368C3F820C5C3F82475C3F857
:1033EC002865C3F82C55C3F840C5C3F84475C3F819
:1033FC004865C3F84C5502F0010505EB5202C3F8C1
:10340C001425E20710D414F0020203D0002D14BFCF
:10341C0008220422002DC3F80022E2B214BF0C23B0
:10342C000823F0BC01F0B8BF1022F3E7C40200205F
:10343C00084B02790C2101FB02320168137AD1F896
:10344C000411DBB219B9981E18BF01207047012076
:10345C0010727047C40200200A4B70B518700A4BEA
:10346C0053F820400130002653F82050A54200D8D4
:10347C0070BD236820465B68984700B166600C34C9
:10348C00F4E700BFF0030020405A0000104B70B569
:10349C00104C05461E469C4204D10E4CB44209D138
:1034AC00002412E062681AB122681268AA420CD099
:1034BC000C34F0E763680BB90C34EFE7236828464B
:1034CC00196801F044FD0028F6D1204670BD00BFFC
:1034DC00C42500203425002010B50446FDF7BEFBA2
:1034EC0001234FF0000163F30701064A064B07481E
:1034FC009B1ADB0863F38F1101F035F9204601F0BC
:10350C0084FF00BFF858000010590000D262000080
:10351C002DE9F3410546884600F038FC01224FF0B6
:10352C00000362F30703244C244A042DA4EB020489
:10353C00C4F3C90496BF224A224A52F8252064F3E8
:10354C008F13ADF800300646002329461E4801F0C3
:10355C0043F9D8F81C30C3F308034BB14FF000010A
:10356C00012363F3070164F38F11184801F0FBF892
:10357C004FF00007012363F30707304664F38F17FE
:10358C0002F023F8B0B10278114B002A08BF18469C
:10359C00FDF7DEF93B46024631460E4801F004F9D0
:1035AC0041462846FFF798FF304602B0BDE8F0418F
:1035BC00FEF772BB0648EBE710590000F858000004
:1035CC00585A00002B63000041630000696300003F
:1035DC00396300008A63000008B50B4D4FF02002E0
:1035EC00EFF3118382F31188BFF36F8F02F033F87E
:1035FC00012102280446D8BF084602F03CF82C6290
:10360C00FDF7FAFFEAE700BFA80300200248034ACF
:10361C000021121A01F0D1BC00000020F40300209C
:10362C0008B50648064A0749121A01F09CFC064ADE
:10363C0006490748BDE8084001F095BC002500206C
:10364C00B0260020F863000000000000F8630000C2
:10365C000000002008B50220FFF7FEFE084A0949C9
:10366C00094801F04FF80320FFF7F6FE00F08EFC3E
:10367C00FCF7D8FF054A137B23F00103137308BD35
:10368C00135D0000A2630000C26300003C03002035
:10369C0080B5A2B0FDF7B4F8354B83F30888354CF0
:1036AC00354E636943F4007363610025E02384F8AD
:1036BC002230E57725766576A576636A43F4E023B8
:1036CC006362FEF7D5FAFDF791FF4FF0FF33A3626B
:1036DC00E36207AB6C222946184601F06EFC274CBE
:1036EC000127A06028468DF82970FFF7B5FE3846F3
:1036FC00FFF7B2FE00F0CAFA214B66624FF480620B
:10370C00CDE90473CDE902551E4B1F49CDE9005597
:10371C00304600F0AFFB737B23F0040213F01B0F59
:10372C00727304D1B36913B9304600F055F9174BD5
:10373C00174D059301220F23CDE903320023CDE968
:10374C00013300934FF4A072124B1349284600F03A
:10375C0091FB6B7BE56023F004036B730F4B0A4901
:10376C000548C4E906334FF48062064BFDF720FF91
:10377C003820002000ED00E03C030020A8030020CE
:10378C00EC63000061360000F8120020F1630000C9
:10379C00D0020020E5350000F8160020C003002000
:1037AC000B4B0C4870B50024834201D3002070BD34
:1037BC001A699D685C610021A94201D11C33F3E7B1
:1037CC005E691660DE685A6101313244F4E700BF6D
:1037DC00542600205426002010B513460C464FF0FA
:1037EC002002EFF3118182F31188BFF36F8F4269CE
:1037FC005AB12260136843618369013383610020ED
:10380C0081F31188BFF36F8F0DE01BB923606FF04C
:10381C000B00F5E70246044800F0F6F918B9034B23
:10382C009B685B69236010BDF1030020A803002096
:10383C0070B504460D464FF02003EFF3118683F369
:10384C001188BFF36F8F01F087FE80B12A68426147
:10385C00427B0021D206816603D183690BB900F04B
:10386C00BBF831460848BDE8704001F01DBE2B681E
:10387C0062691A602B686361A369013BA36186F3DB
:10388C001188BFF36F8F70BDF103002010B5084C89
:10389C0023685BB1FDF7ACFD2368064A1844106140
:1038AC0000211846BDE8104001F0E5BE10BD00BF78
:1038BC00E0030020A8030020F8B50D464FF02003CC
:1038CC00EFF3118483F31188BFF36F8F0D4B4FF41B
:1038DC00004140F2E7360027E1FB006700221A6145
:1038EC0030464FF47A7200233946FCF7F1FB064B55
:1038FC001860064B1D60FFF7C9FF84F31188BFF3F6
:10390C006F8FF8BDA8030020E0030020DC0300202B
:10391C004FF02003EFF3118183F31188BFF36F8F06
:10392C00044B9A68D37B013BD37381F31188BFF3AB
:10393C006F8F7047A8030020094B03F128028242C5
:10394C0005D19B688B4202D14B7BDB0606D1D1E9BA
:10395C00003213605A600023C1E90033704700BF86
:10396C00A803002038B50D4C024604F1280001F0E4
:10397C00BCFD054600B9E568A3684AB95A7BD20676
:10398C0006D1AA6922B9DA897F2A01D9636238BDC6
:10399C009D4201D0FFF77AFF6562F8E7A80300208B
:1039AC0010B54FF02003EFF3118483F31188BFF3AC
:1039BC006F8F084B9A68D37B0133D3730020FFF7CA
:1039CC00D1FF84F31188BFF36F8FBDE8104001F075
:1039DC0082BD00BFA8030020F8B54FF02003EFF321
:1039EC00118483F31188BFF36F8F154A114651F878
:1039FC00283F8B421DD0E3B1D66A90F90E5093F953
:103A0C000E70AF4210DD5A68C0E900321060586089
:103A1C00437B43F0400343730020FFF7A3FF84F381
:103A2C001188BFF36F8FF8BDB34202D01B68002B17
:103A3C00E5D1D36A4360D36A01601860D062E7E7CE
:103A4C00A8030020F8B504464FF02003EFF31185CE
:103A5C0083F31188BFF36F8F437B5A0603D501465E
:103A6C001748FFF769FF174AD2E90A3002F128011B
:103A7C008B421FD0F3B194F90E6093F90E70B742DC
:103A8C0013DD5968C4E900310C605C60637B90689D
:103A9C0043F040036373031B58425841FFF762FF26
:103AAC0085F31188BFF36F8FF8BD834202D01B687A
:103ABC00002BE2D1C4E90010D36A1C60D462E5E7A4
:103ACC00D0030020A8030020154A164938B50C680D
:103ADC009368A342144603D1BDE83840FFF7D6BE25
:103AEC0000250D6010490968B9B1D9897F2914D80E
:103AFC000E4993F90E5009688D420EDB0C498B422E
:103B0C000BD0996949B91169814203DC1846FFF75A
:103B1C0099FFE1E7091A116138BD00232361FBE726
:103B2C00A8030020D8030020E0030020DC030020C1
:103B3C00D002002038B504464FF02003EFF3118576
:103B4C0083F31188BFF36F8F437B5A0607D5014669
:103B5C000948FFF7F1FE637B23F040036373074BC7
:103B6C009868031B58425841FFF7FCFE85F31188F7
:103B7C00BFF36F8F38BD00BFD0030020A803002017
:103B8C0070B504460D461646FFF7D4FF637B43F031
:103B9C00020363737DB12B68A5609D4229D043B3AA
:103BAC0094F90E2093F90E1091421CDD5A68C4E969
:103BBC00003214605C60731C22D026EAE6764FF467
:103BCC00004540F2E73000214FF47A72C5FB060144
:103BDC000023FCF77DFA0B49421C04F11800BDE8E8
:103BEC00704000F067BA69688B4202D01B68002BEA
:103BFC00D8D16B6863606B6825601C606C60DAE719
:103C0C0070BD00BF0355000010B50C461146064AA6
:103C1C009068064A10601A46FFF7B2FF2046BDE8CE
:103C2C001040FDF727BC00BFA8030020D8030020DC
:103C3C00F8B5461C01F039FD34184FF02003EFF3B2
:103C4C00118783F31188BFF36F8F0D4D0D4BA8684F
:103C5C001860FFF76FFFA8680B493246183000F068
:103C6C0029FAAA68537B43F0100353733846FDF7C7
:103C7C0001FC01F01AFD201A20EAE070F8BD00BF2B
:103C8C00A8030020D803002003550000044B00219A
:103C9C0003F12802C3E90A220846FFF70DBE00BF54
:103CAC00A8030020F8B5234C234BA2689A4229D0D4
:103CBC004FF02003EFF3118683F31188BFF36F8F5E
:103CCC0004F12805A1682846FFF736FEA26AA3680E
:103CDC00AA4228D03AB3E06A93F90E1092F90E700A
:103CEC008F421BDD5168C3E900210B6053605A7B86
:103CFC0042F040025A730120FFF734FE86F311881C
:103D0C00BFF36F8F4FF02003EFF3118083F3118813
:103D1C00BFF36F8FBDE8F840FDF7ACBB824202D019
:103D2C001268002ADAD1E26A5A60E26A1D601360F6
:103D3C00E362DCE7A8030020D002002038B5431C66
:103D4C00044605D1104B986800F000F9204638BDA8
:103D5C004FF4004540F2E7300021E5FB04014FF43D
:103D6C007A720023FCF7B4F9044648B9FFF79AFFBE
:103D7C004FF47A7084FB0001C40B44EA4144E5E73C
:103D8C00FFF756FF0446F3E7A8030020014B9868A1
:103D9C00704700BFA803002070B504464FF0200305
:103DAC00EFF3118683F31188BFF36F8F01F0D4FB0F
:103DBC00054670B1437BDB0603D183690BB9FFF772
:103DCC000BFE0023AB6631460548BDE8704001F0A0
:103DDC006BBBD4E902329A4218BF0133A360F2E7FD
:103DEC00F103002010B402460B464FF02000EFF315
:103DFC00118180F31188BFF36F8F946844B1013C3B
:103E0C00946081F31188BFF36F8F002010BC704752
:103E1C0033B981F31188BFF36F8F6FF00F00F5E7A3
:103E2C00014810BCFFF7F0BEF103002010B50246AC
:103E3C004FF02003EFF3118483F31188BFF36F8FDE
:103E4C00437B590704D484F31188BFF36F8F10BDE3
:103E5C0023F00403437301F0ACFB10B11046FFF7E1
:103E6C00BBFD21460248BDE8104001F01DBB00BF60
:103E7C00F103002030B587B004460E9D04950D9DCE
:103E8C0003950C9D02950B9D01950A9D0095FDF7E0
:103E9C006DFB034B9B6803B11B6E236607B030BDF3
:103EAC00A803002070B586B0002605960E9E0496D9
:103EBC000D9E03960C9E02960B9E0F9D01960A9EDC
:103ECC0000960446FFF7D6FF6B1C03D02DB9204695
:103EDC00FFF7ACFF204606B070BD4FF4004640F231
:103EEC00E73000214FF47A720023E6FB0501FCF762
:103EFC00EFF80349421C04F1180000F0DBF8E9E785
:103F0C000355000010B5044601F053FB10B12046D8
:103F1C00FFF710FE04F1180001F087FB637B43F000
:103F2C0010036373084B9B68A3420BD14FF0200323
:103F3C00EFF3118083F31188BFF36F8FBDE810404E
:103F4C0001F0BDBA10BD00BFA803002038B505466E
:103F5C004FF02003EFF3118483F31188BFF36F8FBD
:103F6C00FFF7D0FF074B9B68AB4205D121460648B3
:103F7C00BDE8384001F098BA84F31188BFF36F8F15
:103F8C0038BD00BFA8030020F10300202DE9F04F3D
:103F9C00284E294D87B0B046B54205F1300410D3F8
:103FAC00FFF7B6FC244CDFF894A04FF4004940F224
:103FBC00E7360027444521D307B0BDE8F04FFFF7A3
:103FCC00EFBC54F8043C059354F8103C049354F89B
:103FDC00143C039354F8183C029354F81C3C019382
:103FEC0054F8203C009354E90A2354E90C01FFF7E0
:103FFC0041FF54F8303CDD642546CDE7616A4B1C2B
:10400C0004D0256821B92846FFF710FF3034D1E7DA
:10401C00B346BC46E9FB01BC4FF47A720023584608
:10402C006146FCF755F85146421C05F1180000F0AA
:10403C0041F8EBE754260020C4250020035500006E
:10404C00034B1B680BB9FDF7D3B90020704700BFB9
:10405C00E4030020036840B1074A5268904204D040
:10406C001BB19A6881680A449A60426813605A606E
:10407C000023C0E900337047282500200B4B10B5F6
:10408C001C689C4208BF0024FFF7DAFF54B1A368F8
:10409C00181A20EAE070064B1B6913B19842A8BFAE
:1040AC00184610BD6FF00040F5E700BF2825002032
:1040BC00A803002070B504461646C1604FF02003DB
:1040CC00EFF3118583F31188BFF36F8FFFF7B8FF00
:1040DC00184B1A68012EACBF801901309A42A060AF
:1040EC0001D05E6832B95A6862605A682360146005
:1040FC005C600AE09068A168884215DD411A916005
:10410C005168C4E900210C6054601A689A4206D0C8
:10411C00944204D1FFF7B2FF0021FDF713F985F3A8
:10412C001188BFF36F8F70BD091AB242A160DAD04B
:10413C001268D7E7282500202DE9F04B0446FFF73D
:10414C00C3FC4FF02003EFF3118583F31188BFF309
:10415C006F8F214E214FDFF888903460B846D9F824
:10416C00004032684C45D7E900BC05D024B1A368A7
:10417C00934214DD9B1AA3601BEB02004CEBE27123
:10418C000024C8E900013460FFF778FF2146FDF7F1
:10419C00D9F885F31188BFF36F8FBDE8F08B1BEB5B
:1041AC0003004CEBE371D31A33600023C7E9000121
:1041BC00A3602046FFF74EFF85F31188BFF36F8F86
:1041CC00E36898474FF02003EFF3118583F31188D0
:1041DC00BFF36F8FC3E700BFE40300200000002093
:1041EC00282500202DE918484FF02003EFF3118407
:1041FC0083F31188BFF36F8FFDF7FAF8074BD3E900
:10420C00002312EB000B43F1000C5846614684F37B
:10421C001188BFF36F8FBDE8188800BF0000002025
:10422C00026A002A38B5044602DD0E49FFF742FF48
:10423C00636A01336362A3690BB12046984754F853
:10424C00105FA5420DD065B1284601F014F96B7BC7
:10425C00DB0604D1AB6913B92846FFF7BDFB00237D
:10426C00AB6638BD2D4200002DE9F34140F2E73634
:10427C000027044688464FF4004530463946E5FB96
:10428C00020100234FF47A72FBF722FF39460090AB
:10429C0030464FF47A720023E5FB0801FBF718FF58
:1042AC000190204601F0C1F9009B0549019A236257
:1042BC0020460023636202B0BDE8F041FFF7FABE6E
:1042CC002D42000038B5074C074DAC4201D30020FD
:1042DC0038BD04F114032046C4E9053300F042F85C
:1042EC001C34F2E75426002054260020FFF726BD8C
:1042FC0010B5134641610068426814680A460021F3
:10430C00A047002010BD024610B50B46006852694C
:10431C0041688C680021A047002010BDF8B5044608
:10432C0015461E460846FFF7B1F825612060436824
:10433C002A461F6800214FF49B73B847012220685E
:10434C00A66002FA05F3E3604368DB68211D03B144
:10435C009847206843681B6913B12A460021984787
:10436C000020F8BD2DE9F04F46680789016890F8E8
:10437C000A80FF2306FB07FCC3726144324600230C
:10438C004FF00C09984505DC002319468F4220DCC0
:10439C00BDE8F08FD0F80CA0BCFBF2F509FB03FED6
:1043AC000AEB0E0404F1040B202DC4E901BB05D863
:1043BC00C372920822F003020133E3E715F11F04E4
:1043CC0048BF05F13E0464114AF80E1001EB84015C
:1043DC00EFE7C268056802F1040CEC1845F803C05D
:1043EC0095686560956801312C6033449460CDE725
:1043FC00044608B5084611461A46A047FFF7C6FC06
:10440C00FDF74AFC0020704770B504460D46452068
:10441C00A04729465220A047294623465220BDE8F2
:10442C00704018472DE9F04F8BB01C464FF0000838
:10443C00531E06460F4602934FF0FF3AC146002525
:10444C0005E06DB9252800F04F813946B047029B35
:10445C0013F8010F02930028F3D10BB0BDE8F08FD5
:10446C0064286ED01AD839280AD8312860D22D2861
:10447C0000F0408130284CD0252807D139460BE07C
:10448C00582800F0BB80632800F02A81394625208B
:10449C00B047029B18783946B047D0E7702800F037
:1044AC00A38011D869284CD06C2805D1B8F16C0FB9
:1044BC002AD14FF04C08CAE76828E7D1B8F1680F49
:1044CC0022D14FF04808C2E7752871D018D873284C
:1044DC00DCD154F8045BAB465B461BF8010B00289F
:1044EC0040F0FB80B9F1030F40F00A815D1BAAEB91
:1044FC000505002DA3DD39462020B047013DF8E726
:10450C0078287BD07A28C1D1B8F1000FBED1804673
:10451C009DE7BAF1000F0EDAB9F1000F00F0ED8053
:10452C00A0F1300AB9F1000F08BF4FF002098EE775
:10453C00BAF1000FF4DB0A2303FB0A0AAAF1300AD2
:10454C00F0E7B8F17A0F02D154F8045B1FE0B8F130
:10455C006C0FF9D0B8F14C0FF6D1073424F00704E6
:10456C00F4E8022312F10041069143F10001079196
:10457C00DDE906BC00214FF0FF30614508BF58450E
:10458C0004D239463046FFF73FFF58E71546002D59
:10459C0005DA39462D20B0476D420AF1FF3ACDF8C5
:1045AC0000A04B462A4639463046FCF799F846E7B8
:1045BC00B8F17A0F02D154F8042B11E0B8F16C0F5A
:1045CC00F9D0B8F14C0FF6D1073424F00704F4E815
:1045DC00022300214FF0FF30994208BF9042D0D304
:1045EC00CDF800A04B46DEE739463020B0473946BF
:1045FC007820B0474FF0080A4FF00109029B1B7856
:10460C00702B04D154F8043B049300230DE0B8F153
:10461C006C0FF7D0B8F14C0FF4D1073424F007032A
:10462C001C465B6854F8082B04920021102203915D
:10463C0005914FF0400BABF1040B0498CBF1200C1F
:10464C00ABF1200120FA0BF003FA0CFC40EA0C0051
:10465C0023FA01F1084310F00F0008D1059911B9A4
:10466C00BBF1000F24D1302105E00595E3E70928C3
:10467C008CBF57213021084440B23946089305922B
:10468C00B047039B059A01330393089BBBF1000FC2
:10469C00EBD1B9F1030F7FF4D2AE039BC3EB4A0508
:1046AC00002D7FF7CCAE39462020B047013DF7E70F
:1046BC00511E9245089107DBB9F1010F06D1099300
:1046CC0039463020B047099B089AB4E7B9F1020F7C
:1046DC00FAD1099339462020F4E73946B047FBE676
:1046EC00394654F8040BD7E6A846A9464FF0FF3AD2
:1046FC000125ACE64FF00309A9E64FF00109A6E647
:10470C000546A4E60FB407B504A951F8040B0191B2
:10471C00FCF738F803B05DF804EB04B07047704751
:10472C000023C0E900337047036823B901600023FC
:10473C0041600B60704743681960F8E70068704788
:10474C0003680BB11A6802601846704708B5FCF78D
:10475C00E5FA18B1012343600023038108BDFCF77F
:10476C0061BE0020704738B505460C46FFF7EEFFDA
:10477C0028B105612146BDE83840FCF7F1B938BDD8
:10478C0070B504460E461546FFF7E0FF58B10461BC
:10479C00447A4661012262F3071444722946BDE84B
:1047AC007040FCF7DDB970BD2DE9F0410546884637
:1047BC0017461E46FFF7CAFF60B10561457A022312
:1047CC0063F307154572C0E905873146BDE8F04132
:1047DC00FCF7C6B9BDE8F0812DE9F84305468946DA
:1047EC0090461F46BDF82060FFF7B0FF68B1056129
:1047FC00457AC761032363F307154572C0E9059831
:10480C003146BDE8F843FCF7ABB9BDE8F88310B509
:10481C001C4600F09BF820B12146BDE81040FCF787
:10482C009FB910BD2DE9F8431C4603899DF82070F3
:10483C009B08A3420E4603D800231360BDE8F883FF
:10484C0011682144994284BF191B11600C2BD2F8BA
:10485C00009028D9072CD0F814802BD818300823B6
:10486C004B4528BF4B461D4620441A46FFB13146E6
:10487C0000F079FBA9EB05092E44B9F1000FDDD04E
:10488C00C4F11C054D4528BF4D46201D40442A4609
:10489C00BFB1314600F067FBA9EB0509D8F80080E1
:1048AC002E440024E9E714304FF00008D8E7014605
:1048BC003046DDE7083C1B2CDFD9D8F800801C3CC7
:1048CC00F9E701463046E5E70430BFF35B8F50E86B
:1048DC00003F013340E80032002AF8D1BFF35B8F70
:1048EC007047407A00097047437A1B098B4216D9EE
:1048FC00032B03D800EB810148697047012903D8C9
:10490C0000EB81018869704743690239062903D895
:10491C0003EB81014868704707391B68F6E70020F4
:10492C0070470346021DBFF35B8F52E8001F01392D
:10493C0042E8001CBCF1000FF7D1BFF35B8F5B6842
:10494C000BB9FCF7FDB97047006970472DE9F84FBA
:10495C00824688461546FCF7E1F9044630B301233C
:10496C000026032D4360068109D902220281A5F19C
:10497C00020900F1140B4661B9F1000F0EDC637AE9
:10498C00C4F810A065F30713032D637218D8AA009E
:10499C00414604F1140000F0E6FA07E0FCF7BEF91A
:1049AC00074630B92046FCF7CBF93C462046BDE81B
:1049BC00F88FCBF80000A9F1070906608346DBE706
:1049CC004146082204F11800676900F0CCFA023D58
:1049DC0008F10808072D2E4628BF07264FEA86093E
:1049EC004146381D4A4600F0BEFAAD1BC8443F682C
:1049FC00F0D1DBE713B500240094FFF713FF02B0EE
:104A0C0010BDF8B506460D4614461F4621462846ED
:104A1C003A46B047241A0544F8D1F8BD2DE9F047C1
:104A2C008EB00EAF81460D46FFF78EFF0646484608
:104A3C00FFF757FF8300073323F00703ADEB030D9C
:104A4C0082460EAC4FF00008D04516D14846FFF711
:104A5C0048FF0F281ED8DFE810F0190020002600B0
:104A6C002D00360041004E005D006E008100960066
:104A7C00AD00C600E100FE001D0141464846FFF7AF
:104A8C0033FF44F8280008F10108DDE731462846D9
:104A9C00FCF788F9BD46BDE8F08722683146284608
:104AAC00FCF780F9F6E7D4E9002331462846FCF7F9
:104ABC0079F9EFE7A3680093D4E90023314628463F
:104ACC00FCF770F9E6E7E3680193A3680093D4E977
:104ADC00002331462846FCF765F9DBE7236902938E
:104AEC00E3680193A3680093D4E900233146284678
:104AFC00FCF758F9CEE76369039323690293E368E3
:104B0C000193A3680093D4E9002331462846FCF7AF
:104B1C0049F9BFE7A369049363690393236902937B
:104B2C00E3680193A3680093D4E900233146284637
:104B3C00FCF738F9AEE7E3690593A369049363695D
:104B4C00039323690293E3680193A3680093D4E968
:104B5C00002331462846FCF725F99BE7236A069388
:104B6C00E3690593A369049363690393236902932F
:104B7C00E3680193A3680093D4E9002331462846E7
:104B8C00FCF710F986E7636A0793236A0693E369D7
:104B9C000593A36904936369039323690293E36800
:104BAC000193A3680093D4E9002331462846FCF70F
:104BBC00F9F86FE7A36A0893636A0793236A06936D
:104BCC00E3690593A36904936369039323690293CF
:104BDC00E3680193A3680093D4E900233146284687
:104BEC00FCF7E0F856E7E36A0993A36A0893636A53
:104BFC000793236A0693E3690593A3690493636996
:104C0C00039323690293E3680193A3680093D4E9A7
:104C1C00002331462846FCF7C5F83BE7236B0A9383
:104C2C00E36A0993A36A0893636A0793236A06935A
:104C3C00E3690593A369049363690393236902935E
:104C4C00E3680193A3680093D4E900233146284616
:104C5C00FCF7A8F81EE7636B0B93236B0A93E36ACC
:104C6C000993A36A0893636A0793236A0693E3691B
:104C7C000593A36904936369039323690293E3681F
:104C8C000193A3680093D4E9002331462846FCF72E
:104C9C0089F8FFE6A36B0C93636B0B93236B0A935E
:104CAC00E36A0993A36A0893636A0793236A0693DA
:104CBC00E3690593A36904936369039323690293DE
:104CCC00E3680193A3680093D4E900233146284696
:104CDC00FCF768F8DEE64268816810B50446D2E954
:104CEC0000230068FFF78DFE636800221A6010BD78
:104CFC0008B5D1E901321B68D0544A6813680133F6
:104D0C001360CA68934202D10846FFF7E4FF002003
:104D1C0008BDF8B50D46164604464718BC4201D1ED
:104D2C002846F8BD14F8011B736830465B68984739
:104D3C00F4E783685A7A22B9187AB0FA80F04009FD
:104D4C0070470220704783680020C3E90000704759
:104D5C0038B584680123054663724FF02003EFF3E6
:104D6C00118183F31188BFF36F8F23682BB16068B7
:104D7C001A682260834208BF626081F31188BFF316
:104D8C006F8F03B938BDD3E9012128469047E4E77A
:104D9C00F8B5036806469D68836832B119688A4283
:104DAC004CD011B109680029F9D14FF02000EFF374
:104DBC00118180F31188BFF36F8F1C7A0134E4B238
:104DCC001C7281F31188BFF36F8F0AB34FF08041CF
:104DDC000320C1F80803597A81B94FF02000EFF392
:104DEC00118780F31188BFF36F8F11605868D0B9A9
:104DFC00C3E9002287F31188BFF36F8F4FF0804314
:104E0C000320C3F8040319B1D2E9013130469847A5
:104E1C00012C06D12B684BB9AB7A03F180430122EC
:104E2C001A6000200CE002605A60E3E730469847B5
:104E3C000028F1D13046FFF78BFFF2E76FF00F003F
:104E4C00F8BD0022FFF7A4BF002210B501210446D3
:104E5C001046FCF773FB0020FCF760FB4FF080431F
:104E6C000122C3F818250322C3F80423A3680020E9
:104E7C00C3E9000010BD026873B5956884684FF0F3
:104E8C002003EFF3118683F31188BFF36F8F237A1E
:104E9C0003B3013BDBB22372FBB9C4E900336B688B
:104EAC00A3B9EB7A03F1804301221A602B8903F139
:104EBC00804300221A601B680193019B00206072E2
:104ECC0086F31188BFF36F8F02B070BD984700282E
:104EDC00E7D1F3E76FF04400F2E70020F0E770470A
:104EEC007047FCF78FBB01460068FCF795BB08B513
:104EFC00FCF7E4FBBDE80840FCF7AEBA07B50021AF
:104F0C0001A8FCF7BDFF03B05DF804FB70B50139D7
:104F1C0005462C4642B111F8013F561E2BB92A44C6
:104F2C0004F8013BA242FBD170BD05F8013B3246AF
:104F3C00EFE7C9B202788A42034600F1010004D0BF
:104F4C00002AF7D1002918BF0023184670470138F2
:104F5C00013910F8013F11F8012F934201D1002BB8
:104F6C00F7D1981A7047F0B581EA0004A5070346FB
:104F7C000BD0013B0A4491421AD1F0BD002AFCD05F
:104F8C0011F8014B03F8014B013A9C07F6D1950837
:104F9C00AC001E1F0F19B94205D16FF0030606FBBA
:104FAC0005222344E5E751F804CB46F804CFF2E799
:104FBC0011F8014B03F8014FDDE770B5C9B2034698
:104FCC009C0710D141EA012444EA0445940803EB00
:104FDC008406B3420DD16FF0030505FB04241C4479
:104FEC00A34209D170BD002AFCD003F8011B013A81
:104FFC00E6E743F8045BECE703F8011BF0E7F0B5D8
:10500C000346B1FBF2F702FB1715092D8CBF2726BF
:10501C0000261C4630353544914204F8015B06D21B
:10502C0000222270241A834204D82046F0BD39464F
:10503C002346E6E71A78017803F8011900F8012BEA
:10504C00F1E770B5D0E90065720806F0010342EA99
:10505C00C5729B184FF000014FEA550444EB010157
:10506C00C0E9003170BDD0E900322DE9F0430233C4
:10507C004FF005074FF0000C42F10002B3EB0C06A9
:10508C00B2FBF7FE07FB0EF162EB0101F20842EAFC
:10509C004172B2FBF7F1CA001CEB02084FEA5173E4
:1050AC004EEB0309A2FB0723B31AB3FBF7F318EB80
:1050BC00030449F10005C0E90045BDE8F0830B6825
:1050CC00002B70B510DD013B02680B6044680A21AF
:1050DC00A2FB015601FB046626F07043C0E90053A5
:1050EC00310F3031084670BD3021FBE74FF0FF30F7
:1050FC0070474B68012B07DD0B6818700B68013388
:10510C000B604B68013B4B6000207047FDF7A4BF60
:10511C0010B504688068A468C0692468012904D1AA
:10512C005840C4F80405002010BD003320FA02F0EA
:10513C004FF0010118BF012300F0010091408342A0
:10514C0014BFC4F80815C4F80C15ECE770B5046866
:10515C008068A468C0692568D5F81465D5F8104531
:10516C00D5F8045560406C403440604001291CBFA8
:10517C00D04000F001001860002070BD83681868F2
:10518C0030B558B10024814213D108685CB95C6811
:10519C001860A14200D158600020086072B900204C
:1051AC0030BD2846EFE720605868814208BF5C603C
:1051BC00F2E705680446002DF3D13AB11A680A608B
:1051CC00586819600028EAD15960E9E76FF01500BA
:1051DC00E6E72DE9F74F8046856803F47040B0F59B
:1051EC00804F1E4641D009DCB0F5805F3FD0B0F552
:1051FC00405F3ED090B16FF0150033E0B0F5E04F5A
:10520C0039D004DCB0F5A04FF5D1032006E0B0F5A1
:10521C00404F32D0B0F5504FEDD1072006F4407717
:10522C00B7F5807F2BD0A7F500746342634106F07D
:10523C00010C4FEA4C07012947EA0C0718BFD4B2FE
:10524C0047EA002040EA830712BFA1464FF01F092E
:10525C0000244FF0A04A4FF0010B06F00203A145C9
:10526C000FD2002003B0BDE8F08F0220D6E701205A
:10527C00D4E70420D2E70520D0E70620CEE70323AD
:10528C00D5E7D8F800209268117904F01F0242EAA1
:10529C00411202F5E0724AF822700BFA04F2A96886
:1052AC00002B25D01143A96069690193B0064CBF4E
:1052BC00114391436961A96970064CBF1143914335
:1052CC00A961296970074CBF114391432961E969B0
:1052DC0030064CBF0A4321EA0202EA6121464046ED
:1052EC00FDF7EAFA0028BDD10134E4B2019BB6E720
:1052FC0021EA0201D7E701292DE9F04118BFD4B208
:10530C008768064612BF25461F2500244FF001086A
:10531C00AC4202D90020BDE8F081FB6808FA04F227
:10532C0023EA0203FB6021463046FDF7C5FA00284C
:10533C00F1D10134E4B2EBE701292DE9F04118BFBA
:10534C00D4B28768064612BF25461F2500244FF0AD
:10535C000108AC4202D90020BDE8F081FB6808FAD4
:10536C0004F21343FB6021463046FDF7A5FA0028F2
:10537C00F2D10134E4B2ECE782680B4692E8030008
:10538C0083E80300002070470023435082B0435849
:10539C000193019B02B0704738B51D4602230B7276
:1053AC000B684A7204467BB112F0040F0CBF8221C9
:1053BC009221100748BF41F02001D306236848BF53
:1053CC0021F08001C3F8001320684FF48271FFF7BD
:1053DC00DBFF206812F0800F05BF012343514019F9
:1053EC00002038BD38B505460C46FEF721F850B9FB
:1053FC002B6801225A602846FEF71AF818B9002CBF
:10540C00F9D1204638BD0124FBE74FF02002EFF321
:10541C00118382F31188BFF36F8FFEE7FFF760BD36
:10542C0030B50024C0E90232C0E905440161A34251
:10543C0002D1C0E9000030BD45690D600134416105
:10544C001144F4E7437BDB0603BF8069B0FA80F0BC
:10545C0040090020704710B54FF02003EFF3118482
:10546C0083F31188BFF36F8F00F03FF884F311883A
:10547C00BFF36F8F10BD38B504464FF02003EFF328
:10548C00118583F31188BFF36F8F01468068FEF797
:10549C0053FA637B23F00203637385F31188BFF324
:1054AC006F8F0023A36038BD21B9EFF3058008B9D5
:1054BC00FBF7E0BF81F31188BFF36F8F7047034692
:1054CC0020B9EFF305820AB9FBF7D4BF83F3118837
:1054DC00BFF36F8F70474FF02003EFF3118083F30E
:1054EC001188BFF36F8FFFF7EABF0368984214BFB0
:1054FC0018460020704750F8103C70B50446A0F1D7
:10550C001805CBB14FF02003EFF3118683F311880C
:10551C00BFF36F8F294650F8100CFEF70DFA14F8F4
:10552C000B3C23F0020304F80B3C86F31188BFF309
:10553C006F8F002344F8103C14F80B3C23F0140339
:10554C0004F80B3C2846FFF77DFF20B12846BDE848
:10555C007040FEF741BA70BD38B54FF02003EFF341
:10556C00118283F31188BFF36F8FFFF7BEFF0446E0
:10557C0082F31188BFF36F8FC8B14FF02003EFF3A4
:10558C00118583F31188BFF36F8F01468068FEF796
:10559C00D3F9637B23F00203637385F31188BFF3A4
:1055AC006F8F0023A36004F1180000F03EF8204632
:1055BC0038BD437BDB0603BF8069B0FA80F040093D
:1055CC00002070476FF0460070470020704710B500
:1055DC00029C04738373042400234473C373C0E9D3
:1055EC000633C0E91333C0E9161210BD036D10B5B4
:1055FC00044603B198472046FFF7DBFF38B120463D
:10560C00FEF798FA637B43F00803637310BD637B6A
:10561C009B0702D52046FFF72EFFA369002BF1D084
:10562C0004F1180000F001F8ECE710B54FF020027F
:10563C00EFF3118482F31188BFF36F8F03683BB1D2
:10564C00FEF708FD002084F31188BFF36F8F10BDA7
:10565C006FF01500F7E710B54FF02003EFF311844E
:10566C0083F31188BFF36F8FFEF708FD84F3118865
:10567C00BFF36F8F10BD70B504460E464FF020037C
:10568C00EFF3118583F31188BFF36F8FFEF7F6FCF0
:10569C00012805DDA04203DD31462046FBF752FE12
:1056AC0085F31188BFF36F8F70BD08B5FEF79AFDB7
:1056BC0008BD0023C0E9061200F110024362C0E9E4
:1056CC000422C0E900338362704710B50446FFF72B
:1056DC00ACFF00BBE3690BB12046984704F1100006
:1056EC000021FFF7B8FE0446A8B1FFF7C4FE637BA8
:1056FC00DB0604D1A36913B92046FEF76DF94FF010
:10570C002003EFF3118083F31188BFF36F8FBDE893
:0A571C001040FFF7D4BE10BD704727
:02572600FFFF83
:08572800E8A9FF7F0100000069
:10573000000000002512000000000000EF4E0000F5
:1057400000000000EF4E000000000000EF4E0000DF
:1057500000000000EF4E000000000000EF4E0000CF
:1057600000000000252A000000000000EF4E0000AD
:1057700000000000EF4E000000000000EF4E0000AF
:1057800000000000EF4E000000000000EF4E00009F
:1057900000000000EF4E000000000000EF4E00008F
:1057A00000000000EF4E000000000000EF4E00007F
:1057B00000000000EF4E0000000000008D1200000D
:1057C00000000000EF4E000000000000EF4E00005F
:1057D00000000000EF4E000000000000EF4E00004F
:1057E00000000000EF4E000000000000EF4E00003F
:1057F00000000000EF4E000000000000EF4E00002F
:1058000000000000EF4E000000000000EF4E00001E
:1058100000000000EF4E000000000000EF4E00000E
:1058200000000000EF4E000000000000EF4E0000FE
:1058300000000000EF4E000000000000EF4E0000EE
:1058400000000000EF4E000000000000EF4E0000DE
:1058500000000000EF4E000000000000EF4E0000CE
:0858600000000000EF4E000003
:10586800135D0000AD07000000000000135D00009C
:105878000912000000000000975D0000534D000071
:10588800B0590000A15D0000554E0000A459000069
:10589800B95D0000CD12000000000000135D00009B
:1058A8001D1E000000000000135D000065280000B8
:1058B80000000000EC5A000095280000F85900008C
:1058C8001A5B0000952B0000005A0000795D00006B
:1058D800B52F0000C9620000135D0000AD3700005D
:1058E80000000000135D0000D1420000000000002D
:1058F800AB5D000003000000AA5C0000030000008C
:105908008461000003000000E96300000300000058
:10591800915D000003000000C06200000400000068
:08592800EA6100000300000029
:105930006859000070020020805D00000100000036
:1059400000000000595D0000615D000000000000E3
:105950000000000000000000695D00006D5D0000B7
:10596000715D0000755D0000A511000000000000E1
:105970000000000081110000751100008D11000071
:105980001F4D000078020020ED0300200100000000
:105990004F4E0000834E00009D4D000000000000AF
:1059A0003F4D000000000000000000000001000466
:1059B00000000000000000000401080C02000000CC
:1059C000C459000000000000DB6100002400020751
:1059D00000000020E36100001E000B11DF510000F9
:1059E0001D5100005951000089510000455300002D
:1059F0000353000000000000000000500000000001
:105A000000C001400000000091FFFFFF0004000003
:105A1000E80302011025002004000000000000003F
:105A200000000000E92B0000852B0000552F00002E
:105A3000812F0000D92D0000E92D000085530000C2
:105A40003425002094250020A0250020C425002016
:105A5000C4250020F5FFFFFFE1620000EF620000B7
:105A600003630000126300001E630000427574743B
:105A70006F6E20302070726573736564210A004276
:105A80007574746F6E20302056616C7565205B25CF
:105A9000645D0A0048656C6C6F20627574746F6E8B
:105AA000205468726561640A0056616C7565206FE8
:105AB0006620425554544F4E2030205B25645D0AC9
:105AC0000070776D2070696E20736574206661695F
